:0300000002020FEA
:0C020F00787FE4F6D8FD758120020256CD
:10029B006700D4C1C7B6D6DAB4B400D6C7C4DCB5D0
:1002AB00E7D7D3B3C6CFB5CDB300CEEFC6B7D6D84D
:1002BB00C1BF3A003031323334353637383900B3B9
:1002CB00ACD6D82100CEB4B7C5D6C3CEEFC6B700D7
:1002DB002020202020202020202020202020202013
:0102EB000012
:10040B00041100000000040900000000040D0000AE
:07041B000000010800C10010
:10000300120330E4FDFF1203787BFF7A02799D121D
:100013000398E4FD7F011203787BFF7A0279A680BF
:1000230017C2AFD2AF120437300012E4FD7F0312C0
:1000330003787BFF7A0279CA12039880E4E4FD7F98
:10004300021203787BFF7A0279B5120398E47BE806
:100053007A03F9F8AF10AE0FAD0EAC0D1202EC74CB
:10006300BF2FF58274023EF583E493FF1203F1E49C
:100073007BE87A03F9F8AF10AE0FAD0EAC0D1202A8
:10008300ECAC00AD01AE02AF03E47B64FAF9F81205
:1000930002EC74BF2FF58274023EF583E493FF12E2
:1000A30003F1E47B64FAF9F8AF10AE0FAD0EAC0DBB
:1000B3001202ECAC00AD01AE02AF03E47B0AFAF925
:1000C300F81202EC74BF2FF58274023EF583E493B9
:1000D300FF1203F1E47B0AFAF9F8AF10AE0FAD0E8D
:1000E300AC0D1202EC74BF2BF58274023AF583E473
:1000F30093FF1203F17BFF7A02799B120398E4FDCD
:100103007F031203787BFF7A0279DB1203980200E4
:0101130024C7
:1004370020B30D7F057E0012035820B30330B3FDB0
:010447002292
:10035800E4FDFCC3ED9FEC9E5015E4FBFA0BBB00DB
:0F036800010AEB647B4A70F50DBD00010C80E4C7
:010377002263
:0A03B800EF1FAC0670011E4C60122E
:1003C200E4F515E515C394FA50EC0000000005159C
:0203D20080F1B8
:0103D4002206
:10042300C284D283D28200000000E5A0339201C2CD
:0304330082A201A1
:0104360022A3
:1003D50012042340FBC284C283C28200008FA000A6
:0C03E500000000D28200000000C2822252
:1003F10012042340FBD284C283C2828FA00000007A
:0A04010000D28200000000C2822237
:10033000D281D2807F301203D57F057E001203B8B0
:100340007F0C1203D57F057E001203B87F011203D4
:08035000D57F057E000203B811
:10037800EF70047F808013BF01047F90800CBF0260
:10038800047F888005BF03027F98EF2DFF0203D505
:060398008B158A1689177F
:10039E00E4FEAB15AA16A9178E82758300120114FE
:0903AE00FF60061203F10E80E964
:0103B7002223
:10021B00020003E493A3F8E493A34003F68001F2F6
:10022B0008DFF48029E493A3F85407240CC8C333E4
:10023B00C4540F4420C8834004F456800146F6DFB3
:10024B00E4800B010204081020408090040BE47E34
:10025B00019360BCA3FF543F30E509541FFEE493A8
:10026B00A360010ECF54C025E060A840B8E493A36F
:10027B00FAE493A3F8E493A3C8C582C8CAC583CA9A
:10028B00F0A3C8C582C8CAC583CADFE9DEE780BE52
:0104220000D9
:10011400BB010CE58229F582E5833AF583E02250A0
:1001240006E92582F8E622BBFE06E92582F8E222EA
:0D013400E58229F582E5833AF583E4932204
:1002EC00C2D5E830E70FB2D5E4C39BFBE49AFAE43D
:1002FC0099F9E498F8EC30E717B2D5120322120101
:10030C007DE4C39BFBE49AFAE499F9E498F8800342
:10031C0012017D30D50DE4C39FFFE49EFEE49DFDEC
:04032C00E49CFC222F
:1001410075F008758200EF2FFFEE33FECD33CDCC75
:1001510033CCC58233C5829BED9AEC99E5829840F8
:100161000CF582EE9BFEED9AFDEC99FC0FD5F0D6D5
:10017100E4CEFBE4CDFAE4CCF9A88222B800C1B9FF
:100181000059BA002DEC8BF084CFCECDFCE5F0CB3D
:10019100F97818EF2FFFEE33FEED33FDEC33FCEB76
:1001A10033FB10D703994004EB99FB0FD8E5E4F931
:1001B100FA227818EF2FFFEE33FEED33FDEC33FC1E
:1001C100C933C910D7059BE99A4007EC9BFCE99A12
:1001D100F90FD8E0E4C9FAE4CCFB2275F010EF2F57
:1001E100FFEE33FEED33FDCC33CCC833C810D70757
:1001F1009BEC9AE899400AED9BFDEC9AFCE899F892
:0E0201000FD5F0DAE4CDFBE4CCFAE4C8F92224
:00000001FF
