:0300000002017387
:0C017300787FE4F6D8FD7581400201BAE7
:1002B20068656C6C6F0D0A00D4C1C7B6D6DAB4B4E7
:1002C20000D6C7C4DCBDBDBBA8D7B0D6C3002000D2
:1002D20030313233343536373839002000200020AF
:1002E200202020202020202020202020202020002C
:1000D30044007100000000440034000000004400AC
:1000E3006D0000000041000E00C10049007541543D
:1000F3002B5253540D0A004E003841542B43574D95
:100103004F44453D330D0A006027004641542B43BD
:10011300575341503D224745432D455350222C22EE
:1001230030313233343536373839222C31312C33B0
:100133000D0A004E000041542B4349504D55583D84
:10014300310D0A0056001E41542B4349505345526A
:100153005645523D312C353030300D0A004F000FDB
:0F01630041542B43495053454E443D350D0A003E
:10025B00E490007EF0A3F0120382E4FDFF1203AAE8
:10026B007BFF7A0279BA120358E4FD7F011203AACD
:10027B007BFF7A0279C31203581203EF7F03120438
:10028B00457FD07E071200037F01309605120429AB
:10029B0080031204457F0230970512042980031254
:0702AB0004451202F280E19C
:1002F20020B32F7F057E0012000320B32520B322F6
:100302007B017A00790F1203257FC87E0012000359
:100312007BFF7A0279B21203257FC87E00120003A6
:0303220080DB225B
:10000300E4FDFCC3ED9FEC9E5015E4FBFA0BBB0033
:0F001300010AEB647B4A70F50DBD00010C80E41F
:0100220022BB
:03002300020026B2
:10002600C0E0C083C082C0D075D000C000C006C08A
:10003600072098030200BDB291C298900083E02485
:1000460021F8A6997821E6FF900083B44505E004DF
:10005600F08002E4F0900083E0C3940A4059EF6414
:1000660045704A7822E66453704308E66450703D52
:100076007825E6644C703408E66445702E08E6641C
:1000860044702808E6FFB4310F7824E6FEB44B022C
:10009600C290EEB44702D290EFB4320F7824E6FF56
:1000A600B44B02C291EFB44702D291800090008314
:1000B600E4F0900083E4F0309904C299C201D007BD
:0D00C600D006D000D0D0D082D083D0E03260
:0A03CD00EF1FAC0670011E4C601714
:1003D700E4900080F0900080E0C394FA50E80000B9
:0703E7000000E004F080EECD
:0103EE0022EC
:10047B00C284D283D28200000000E5A0339202C274
:03048B0082A20248
:01048E00224B
:10040D0012047B40FBC284C283C28200008FA00015
:0C041D00000000D28200000000C2822219
:1004610012047B40FBD284C283C2828FA0000000B1
:0A04710000D28200000000C28222C7
:10038200D281D2807F3012040D7F057E001203CD10
:100392007F0C12040D7F057E001203CD7F01120433
:0803A2000D7F057E000203CD72
:1003AA00EF70047F808016EFB401047F90800EEF17
:1003BA00B402047F888006EFB403027F98EF2DFF12
:0303CA0002040D1D
:0B035800900080EBF0A3EAF0A3E9F0B6
:10036300E4FE900080E0FBA3E0FAA3E0F98E82753F
:0E0373008300120218FF60061204610E80E47F
:010381002259
:1003EF00758920E4F587759850758DFD758BFDD255
:0E03FF00ACD2AFD28E900083F0A3F0C20122E8
:0C048F00C2AC8F993099FDC299D2AC220A
:10032500900080EBF0A3EAF0A3E9F0900080E0FBF9
:10033500A3E0FAA3E0F91201FFFF12048F900080F9
:10034500E0FBA3E475F001120245A9F0FA1201FFE2
:0303550070D9223A
:10042900EFB40105D292C29322EFB402028008EF21
:0C043900B40308D292C293D294C2952260
:10044500EFB40105C292C29322EFB402028008EF15
:0C045500B40308C292C293C294C2952264
:10017F0002025BE493A3F8E493A34003F68001F239
:10018F0008DFF48029E493A3F85407240CC8C33381
:10019F00C4540F4420C8834004F456800146F6DF50
:1001AF00E4800B01020408102040809000D3E47E0D
:1001BF00019360BCA3FF543F30E509541FFEE49345
:1001CF00A360010ECF54C025E060A840B8E493A30C
:1001DF00FAE493A3F8E493A3C8C582C8CAC583CA37
:1001EF00F0A3C8C582C8CAC583CADFE9DEE780BEEF
:01017200008C
:1001FF00BB010689828A83E0225002E722BBFE02FE
:09020F00E32289828A83E4932230
:10021800BB010CE58229F582E5833AF583E022509B
:1002280006E92582F8E622BBFE06E92582F8E222E5
:0D023800E58229F582E5833AF583E49322FF
:10024500A3F8E0C5F025F0F0E5821582700215836C
:06025500E0C838F0E822C9
:00000001FF
