:0300000002018872
:0C018800787FE4F6D8FD7581400201CFBD
:1002CC0068656C6C6F0D0A00D4C1C7B6D6DAB4B4CD
:1002DC0000D6C7C4DCB5E7D7D3B3C6CFB5CDB30012
:1002EC00CEEFC6B7D6D8C1BF3A0030313233343531
:1002FC003637383900B3ACD6D82100CEB4B7C5D612
:10030C00C3CEEFC6B70020202020202020202020A4
:07031C00202020202020001A
:1000E8004400710000000044003400000000440097
:1000F8006D0000000041000E00C100490075415428
:100108002B5253540D0A004E003841542B43574D7F
:100118004F44453D330D0A006027004641542B43A8
:10012800575341503D224745432D455350222C22D9
:1001380030313233343536373839222C31312C339B
:100148000D0A004E000041542B4349504D55583D6F
:10015800310D0A0056001E41542B43495053455255
:100168005645523D312C353030300D0A004F000FC6
:0F01780041542B43495053454E443D350D0A0029
:10021400E490007EF0A3F01200031203DB7B017A6A
:100224000079751203567F887E131203DF7B017AEF
:100234000079381203567FE87E031203DF7B017ACC
:100244000079461203567FB87E0B1203DF7B017AD6
:100254000079001203561203DB7B017A00791E1227
:0C02640003561203DBC29012032380FB40
:1003230020B32F7F057E001203DF20B32520B322E5
:100333007B017A00790F1203567FC87E001203DF18
:100343007BFF7A0279CC1203567FC87E001203DF4B
:0303530080DB222A
:0403DB007FD07E074A
:1003DF00E4FDFCC3ED9FEC9E5015E4FBFA0BBB0054
:0F03EF00010AEB647B4A70F50DBD00010C80E440
:0103FE0022DC
:03002300020026B2
:10002600C0E0C083C082C0D075D000C000C006C08A
:10003600072098030200D2B291C298900086E0246D
:1000460021F8A6997821E6FF900086B44505E004DC
:10005600F08002E4F0900086E0C3940A406EEF64FC
:1000660045705F7822E66453705808E66450705213
:100076007825E6644C704908E66445704308E664F2
:1000860044703D08E6FFB4310F7824E6FEB44B0217
:10009600C290EEB44702D290EFB4320F7824E6FF56
:1000A600B44B02C291EFB44702D2917828E6B4333A
:1000B6000F7824E6FFB44B02C292EFB44702D29205
:1000C6008000900086E4F0900086E4F0309904C247
:1000D60099C202D007D006D000D0D0D082D083D02B
:0200E600E03206
:0A042200EF1FAC0670011E4C6017BE
:10042C00E4900088F0900088E0C394FA50E8000053
:07043C000000E004F080EE77
:010443002296
:10047A00C284D283D28200000000E5A0339201C276
:03048A0082A2014A
:01048D00224C
:1004440012047A40FBC284C283C28200008FA000DF
:0C045400000000D28200000000C28222E2
:1004600012047A40FBD284C283C2828FA0000000B3
:0A04700000D28200000000C28222C8
:1003B300D281D2807F301204447F057E0012042252
:1003C3007F0C1204447F057E001204227F01120475
:0803D300447F057E00020422B4
:1003FF00EF70047F808016EFB401047F90800EEFC2
:10040F00B402047F888006EFB403027F98EF2DFFBC
:03041F0002044490
:0B038900900083EBF0A3EAF0A3E9F082
:10039400E4FE900083E0FBA3E0FAA3E0F98E82750B
:0E03A4008300120289FF60061204600E80E4DE
:0103B2002228
:10000300758920E4F587759850758DFD758BFDD244
:0E001300ACD2AFD28E900086F0A3F0C20222D3
:0C048E00C2AC8F993099FDC299D2AC220B
:10035600900080EBF0A3EAF0A3E9F0900080E0FBC8
:10036600A3E0FAA3E0F9120270FF12048E90008057
:10037600E0FBA3E475F0011202B6A9F0FA120270CE
:0303860070D92209
:10019400020214E493A3F8E493A34003F68001F26B
:1001A40008DFF48029E493A3F85407240CC8C3336C
:1001B400C4540F4420C8834004F456800146F6DF3B
:1001C400E4800B01020408102040809000E8E47EE3
:1001D400019360BCA3FF543F30E509541FFEE49330
:1001E400A360010ECF54C025E060A840B8E493A3F7
:1001F400FAE493A3F8E493A3C8C582C8CAC583CA22
:10020400F0A3C8C582C8CAC583CADFE9DEE780BED9
:010187000077
:10027000BB010689828A83E0225002E722BBFE028C
:09028000E32289828A83E49322BF
:10028900BB010CE58229F582E5833AF583E022502A
:1002990006E92582F8E622BBFE06E92582F8E22274
:0D02A900E58229F582E5833AF583E493228E
:1002B600A3F8E0C5F025F0F0E582158270021583FB
:0602C600E0C838F0E82258
:00000001FF
